{
  "_format": "hh-sol-artifact-1",
  "contractName": "Staking",
  "sourceName": "contracts/Staking.sol",
  "abi": [
    {
      "inputs": [],
      "stateMutability": "payable",
      "type": "constructor"
    },
    {
      "inputs": [
        {
          "internalType": "uint256",
          "name": "positionId",
          "type": "uint256"
        },
        {
          "internalType": "uint256",
          "name": "newUnlockDate",
          "type": "uint256"
        }
      ],
      "name": "changeUnlockDate",
      "outputs": [],
      "stateMutability": "nonpayable",
      "type": "function"
    },
    {
      "inputs": [
        {
          "internalType": "uint256",
          "name": "positionId",
          "type": "uint256"
        }
      ],
      "name": "closePosition",
      "outputs": [],
      "stateMutability": "nonpayable",
      "type": "function"
    },
    {
      "inputs": [],
      "name": "currentPositionId",
      "outputs": [
        {
          "internalType": "uint256",
          "name": "",
          "type": "uint256"
        }
      ],
      "stateMutability": "view",
      "type": "function"
    },
    {
      "inputs": [
        {
          "internalType": "uint256",
          "name": "numDays",
          "type": "uint256"
        }
      ],
      "name": "getInterestRate",
      "outputs": [
        {
          "internalType": "uint256",
          "name": "",
          "type": "uint256"
        }
      ],
      "stateMutability": "view",
      "type": "function"
    },
    {
      "inputs": [],
      "name": "getLockPeriods",
      "outputs": [
        {
          "internalType": "uint256[]",
          "name": "",
          "type": "uint256[]"
        }
      ],
      "stateMutability": "view",
      "type": "function"
    },
    {
      "inputs": [
        {
          "internalType": "uint256",
          "name": "positionId",
          "type": "uint256"
        }
      ],
      "name": "getPositionById",
      "outputs": [
        {
          "components": [
            {
              "internalType": "uint256",
              "name": "positionId",
              "type": "uint256"
            },
            {
              "internalType": "address",
              "name": "walletAddress",
              "type": "address"
            },
            {
              "internalType": "uint256",
              "name": "createdDate",
              "type": "uint256"
            },
            {
              "internalType": "uint256",
              "name": "unlockDate",
              "type": "uint256"
            },
            {
              "internalType": "uint256",
              "name": "percentInterest",
              "type": "uint256"
            },
            {
              "internalType": "uint256",
              "name": "weiStaked",
              "type": "uint256"
            },
            {
              "internalType": "uint256",
              "name": "weiInterest",
              "type": "uint256"
            },
            {
              "internalType": "bool",
              "name": "open",
              "type": "bool"
            }
          ],
          "internalType": "struct Staking.Position",
          "name": "",
          "type": "tuple"
        }
      ],
      "stateMutability": "view",
      "type": "function"
    },
    {
      "inputs": [
        {
          "internalType": "address",
          "name": "walletAddress",
          "type": "address"
        }
      ],
      "name": "getPositionIdsForAddress",
      "outputs": [
        {
          "internalType": "uint256[]",
          "name": "",
          "type": "uint256[]"
        }
      ],
      "stateMutability": "view",
      "type": "function"
    },
    {
      "inputs": [
        {
          "internalType": "uint256",
          "name": "",
          "type": "uint256"
        }
      ],
      "name": "lockPeriods",
      "outputs": [
        {
          "internalType": "uint256",
          "name": "",
          "type": "uint256"
        }
      ],
      "stateMutability": "view",
      "type": "function"
    },
    {
      "inputs": [
        {
          "internalType": "uint256",
          "name": "numDays",
          "type": "uint256"
        },
        {
          "internalType": "uint256",
          "name": "basisPoints",
          "type": "uint256"
        }
      ],
      "name": "modifyLockPeriods",
      "outputs": [],
      "stateMutability": "nonpayable",
      "type": "function"
    },
    {
      "inputs": [],
      "name": "owner",
      "outputs": [
        {
          "internalType": "address",
          "name": "",
          "type": "address"
        }
      ],
      "stateMutability": "view",
      "type": "function"
    },
    {
      "inputs": [
        {
          "internalType": "address",
          "name": "",
          "type": "address"
        },
        {
          "internalType": "uint256",
          "name": "",
          "type": "uint256"
        }
      ],
      "name": "positionIdsByAddress",
      "outputs": [
        {
          "internalType": "uint256",
          "name": "",
          "type": "uint256"
        }
      ],
      "stateMutability": "view",
      "type": "function"
    },
    {
      "inputs": [
        {
          "internalType": "uint256",
          "name": "",
          "type": "uint256"
        }
      ],
      "name": "positions",
      "outputs": [
        {
          "internalType": "uint256",
          "name": "positionId",
          "type": "uint256"
        },
        {
          "internalType": "address",
          "name": "walletAddress",
          "type": "address"
        },
        {
          "internalType": "uint256",
          "name": "createdDate",
          "type": "uint256"
        },
        {
          "internalType": "uint256",
          "name": "unlockDate",
          "type": "uint256"
        },
        {
          "internalType": "uint256",
          "name": "percentInterest",
          "type": "uint256"
        },
        {
          "internalType": "uint256",
          "name": "weiStaked",
          "type": "uint256"
        },
        {
          "internalType": "uint256",
          "name": "weiInterest",
          "type": "uint256"
        },
        {
          "internalType": "bool",
          "name": "open",
          "type": "bool"
        }
      ],
      "stateMutability": "view",
      "type": "function"
    },
    {
      "inputs": [
        {
          "internalType": "uint256",
          "name": "numDays",
          "type": "uint256"
        }
      ],
      "name": "stakeEther",
      "outputs": [],
      "stateMutability": "payable",
      "type": "function"
    },
    {
      "inputs": [
        {
          "internalType": "uint256",
          "name": "",
          "type": "uint256"
        }
      ],
      "name": "tiers",
      "outputs": [
        {
          "internalType": "uint256",
          "name": "",
          "type": "uint256"
        }
      ],
      "stateMutability": "view",
      "type": "function"
    }
  ],
  "bytecode": "0x6080604052336000806101000a81548173ffffffffffffffffffffffffffffffffffffffff021916908373ffffffffffffffffffffffffffffffffffffffff16021790555060006009819055506102bc600c6000601e8152602001908152602001600020819055506103e8600c6000605a8152602001908152602001600020819055506104b0600c600060b4815260200190815260200160002081905550600d601e9080600181540180825580915050600190039060005260206000200160009091909190915055600d605a9080600181540180825580915050600190039060005260206000200160009091909190915055600d60b490806001815401808255809150506001900390600052602060002001600090919091909150556114f08061012a6000396000f3fe6080604052600436106100dd5760003560e01c80638da5cb5b1161007f578063b0f0475b11610059578063b0f0475b14610301578063b838ec861461032a578063c7c9d05514610367578063e4f9084114610390576100dd565b80638da5cb5b1461026957806399fbab8814610294578063a126d601146102d8576100dd565b806340d98a44116100bb57806340d98a441461018757806341ee13be146101c457806345eae373146101ef5780634c8f2a781461022c576100dd565b8063039af9eb146100e25780630c196a741461011f5780631131c8cd1461015c575b600080fd5b3480156100ee57600080fd5b5061010960048036038101906101049190610dec565b6103ac565b6040516101169190611217565b60405180910390f35b34801561012b57600080fd5b5061014660048036038101906101419190610dec565b6103c4565b6040516101539190611217565b60405180910390f35b34801561016857600080fd5b506101716103e1565b60405161017e9190611217565b60405180910390f35b34801561019357600080fd5b506101ae60048036038101906101a99190610d87565b6103e7565b6040516101bb9190611159565b60405180910390f35b3480156101d057600080fd5b506101d961047e565b6040516101e69190611159565b60405180910390f35b3480156101fb57600080fd5b5061021660048036038101906102119190610db0565b6104d6565b6040516102239190611217565b60405180910390f35b34801561023857600080fd5b50610253600480360381019061024e9190610dec565b610507565b6040516102609190611217565b60405180910390f35b34801561027557600080fd5b5061027e61052b565b60405161028b919061113e565b60405180910390f35b3480156102a057600080fd5b506102bb60048036038101906102b69190610dec565b61054f565b6040516102cf989796959493929190611232565b60405180910390f35b3480156102e457600080fd5b506102ff60048036038101906102fa9190610dec565b6105c4565b005b34801561030d57600080fd5b5061032860048036038101906103239190610e15565b61084d565b005b34801561033657600080fd5b50610351600480360381019061034c9190610dec565b610920565b60405161035e91906111fb565b60405180910390f35b34801561037357600080fd5b5061038e60048036038101906103899190610e15565b6109fb565b005b6103aa60048036038101906103a59190610dec565b610aa8565b005b600c6020528060005260406000206000915090505481565b6000600c6000838152602001908152602001600020549050919050565b60095481565b6060600b60008373ffffffffffffffffffffffffffffffffffffffff1673ffffffffffffffffffffffffffffffffffffffff16815260200190815260200160002080548060200260200160405190810160405280929190818152602001828054801561047257602002820191906000526020600020905b81548152602001906001019080831161045e575b50505050509050919050565b6060600d8054806020026020016040519081016040528092919081815260200182805480156104cc57602002820191906000526020600020905b8154815260200190600101908083116104b8575b5050505050905090565b600b60205281600052604060002081815481106104f257600080fd5b90600052602060002001600091509150505481565b600d818154811061051757600080fd5b906000526020600020016000915090505481565b60008054906101000a900473ffffffffffffffffffffffffffffffffffffffff1681565b600a6020528060005260406000206000915090508060000154908060010160009054906101000a900473ffffffffffffffffffffffffffffffffffffffff16908060020154908060030154908060040154908060050154908060060154908060070160009054906101000a900460ff16905088565b3373ffffffffffffffffffffffffffffffffffffffff16600a600083815260200190815260200160002060010160009054906101000a900473ffffffffffffffffffffffffffffffffffffffff1673ffffffffffffffffffffffffffffffffffffffff1614610668576040517f08c379a000000000000000000000000000000000000000000000000000000000815260040161065f906111bb565b60405180910390fd5b60011515600a600083815260200190815260200160002060070160009054906101000a900460ff161515146106d2576040517f08c379a00000000000000000000000000000000000000000000000000000000081526004016106c9906111db565b60405180910390fd5b6000600a600083815260200190815260200160002060070160006101000a81548160ff021916908315150217905550600a6000828152602001908152602001600020600301544211156107ca576000600a600083815260200190815260200160002060060154600a6000848152602001908152602001600020600501546107599190611305565b90503373ffffffffffffffffffffffffffffffffffffffff168160405161077f90611129565b60006040518083038185875af1925050503d80600081146107bc576040519150601f19603f3d011682016040523d82523d6000602084013e6107c1565b606091505b5050505061084a565b3373ffffffffffffffffffffffffffffffffffffffff16600a60008381526020019081526020016000206005015460405161080490611129565b60006040518083038185875af1925050503d8060008114610841576040519150601f19603f3d011682016040523d82523d6000602084013e610846565b606091505b5050505b50565b3373ffffffffffffffffffffffffffffffffffffffff1660008054906101000a900473ffffffffffffffffffffffffffffffffffffffff1673ffffffffffffffffffffffffffffffffffffffff16146108db576040517f08c379a00000000000000000000000000000000000000000000000000000000081526004016108d29061117b565b60405180910390fd5b80600c600084815260200190815260200160002081905550600d8290806001815401808255809150506001900390600052602060002001600090919091909150555050565b610928610d00565b600a600083815260200190815260200160002060405180610100016040529081600082015481526020016001820160009054906101000a900473ffffffffffffffffffffffffffffffffffffffff1673ffffffffffffffffffffffffffffffffffffffff1673ffffffffffffffffffffffffffffffffffffffff16815260200160028201548152602001600382015481526020016004820154815260200160058201548152602001600682015481526020016007820160009054906101000a900460ff1615151515815250509050919050565b3373ffffffffffffffffffffffffffffffffffffffff1660008054906101000a900473ffffffffffffffffffffffffffffffffffffffff1673ffffffffffffffffffffffffffffffffffffffff1614610a89576040517f08c379a0000000000000000000000000000000000000000000000000000000008152600401610a809061117b565b60405180910390fd5b80600a6000848152602001908152602001600020600301819055505050565b6000600c60008381526020019081526020016000205411610afe576040517f08c379a0000000000000000000000000000000000000000000000000000000008152600401610af59061119b565b60405180910390fd5b60405180610100016040528060095481526020013373ffffffffffffffffffffffffffffffffffffffff1681526020014281526020016201518083610b43919061138c565b42610b4e9190611305565b8152602001600c6000848152602001908152602001600020548152602001348152602001610b90600c6000858152602001908152602001600020548434610cdc565b815260200160011515815250600a600060095481526020019081526020016000206000820151816000015560208201518160010160006101000a81548173ffffffffffffffffffffffffffffffffffffffff021916908373ffffffffffffffffffffffffffffffffffffffff16021790555060408201518160020155606082015181600301556080820151816004015560a0820151816005015560c0820151816006015560e08201518160070160006101000a81548160ff021916908315150217905550905050600b60003373ffffffffffffffffffffffffffffffffffffffff1673ffffffffffffffffffffffffffffffffffffffff1681526020019081526020016000206009549080600181540180825580915050600190039060005260206000200160009091909190915055600160096000828254610cd29190611305565b9250508190555050565b60006127108285610ced919061138c565b610cf7919061135b565b90509392505050565b60405180610100016040528060008152602001600073ffffffffffffffffffffffffffffffffffffffff16815260200160008152602001600081526020016000815260200160008152602001600081526020016000151581525090565b600081359050610d6c8161148c565b92915050565b600081359050610d81816114a3565b92915050565b600060208284031215610d9957600080fd5b6000610da784828501610d5d565b91505092915050565b60008060408385031215610dc357600080fd5b6000610dd185828601610d5d565b9250506020610de285828601610d72565b9150509250929050565b600060208284031215610dfe57600080fd5b6000610e0c84828501610d72565b91505092915050565b60008060408385031215610e2857600080fd5b6000610e3685828601610d72565b9250506020610e4785828601610d72565b9150509250929050565b6000610e5d838361110b565b60208301905092915050565b610e72816113e6565b82525050565b610e81816113e6565b82525050565b6000610e92826112c0565b610e9c81856112d8565b9350610ea7836112b0565b8060005b83811015610ed8578151610ebf8882610e51565b9750610eca836112cb565b925050600181019050610eab565b5085935050505092915050565b610eee816113f8565b82525050565b610efd816113f8565b82525050565b6000610f106025836112f4565b91507f4f6e6c79206f776e6572206d6179206d6f64696679207374616b696e6720706560008301527f72696f64730000000000000000000000000000000000000000000000000000006020830152604082019050919050565b6000610f766011836112f4565b91507f4d617070696e67206e6f7420666f756e640000000000000000000000000000006000830152602082019050919050565b6000610fb66029836112f4565b91507f4f6e6c7920706f736974696f6e2063726561746f72206d6179206d6f6469667960008301527f20706f736974696f6e00000000000000000000000000000000000000000000006020830152604082019050919050565b600061101c6012836112f4565b91507f506f736974696f6e20697320636c6f73656400000000000000000000000000006000830152602082019050919050565b600061105c6000836112e9565b9150600082019050919050565b61010082016000820151611080600085018261110b565b5060208201516110936020850182610e69565b5060408201516110a6604085018261110b565b5060608201516110b9606085018261110b565b5060808201516110cc608085018261110b565b5060a08201516110df60a085018261110b565b5060c08201516110f260c085018261110b565b5060e082015161110560e0850182610ee5565b50505050565b61111481611424565b82525050565b61112381611424565b82525050565b60006111348261104f565b9150819050919050565b60006020820190506111536000830184610e78565b92915050565b600060208201905081810360008301526111738184610e87565b905092915050565b6000602082019050818103600083015261119481610f03565b9050919050565b600060208201905081810360008301526111b481610f69565b9050919050565b600060208201905081810360008301526111d481610fa9565b9050919050565b600060208201905081810360008301526111f48161100f565b9050919050565b6000610100820190506112116000830184611069565b92915050565b600060208201905061122c600083018461111a565b92915050565b600061010082019050611248600083018b61111a565b611255602083018a610e78565b611262604083018961111a565b61126f606083018861111a565b61127c608083018761111a565b61128960a083018661111a565b61129660c083018561111a565b6112a360e0830184610ef4565b9998505050505050505050565b6000819050602082019050919050565b600081519050919050565b6000602082019050919050565b600082825260208201905092915050565b600081905092915050565b600082825260208201905092915050565b600061131082611424565b915061131b83611424565b9250827fffffffffffffffffffffffffffffffffffffffffffffffffffffffffffffffff038211156113505761134f61142e565b5b828201905092915050565b600061136682611424565b915061137183611424565b9250826113815761138061145d565b5b828204905092915050565b600061139782611424565b91506113a283611424565b9250817fffffffffffffffffffffffffffffffffffffffffffffffffffffffffffffffff04831182151516156113db576113da61142e565b5b828202905092915050565b60006113f182611404565b9050919050565b60008115159050919050565b600073ffffffffffffffffffffffffffffffffffffffff82169050919050565b6000819050919050565b7f4e487b7100000000000000000000000000000000000000000000000000000000600052601160045260246000fd5b7f4e487b7100000000000000000000000000000000000000000000000000000000600052601260045260246000fd5b611495816113e6565b81146114a057600080fd5b50565b6114ac81611424565b81146114b757600080fd5b5056fea264697066735822122071b0f7c0fe5930e88d3eafceb4f416a9e1d315b2a80cf079a51c366ce019fa0864736f6c63430008000033",
  "linkReferences": {},
  "deployedLinkReferences": {}
}